{"abi":[{"type":"constructor","inputs":[{"name":"_rewardToken","type":"address","internalType":"contract LearningToken"}],"stateMutability":"nonpayable"},{"type":"function","name":"completeLearningStage","inputs":[],"outputs":[],"stateMutability":"nonpayable"},{"type":"function","name":"rewardToken","inputs":[],"outputs":[{"name":"","type":"address","internalType":"contract LearningToken"}],"stateMutability":"view"},{"type":"function","name":"rewards","inputs":[{"name":"","type":"address","internalType":"address"}],"outputs":[{"name":"","type":"uint256","internalType":"uint256"}],"stateMutability":"view"},{"type":"function","name":"stake","inputs":[{"name":"_amount","type":"uint256","internalType":"uint256"}],"outputs":[],"stateMutability":"nonpayable"},{"type":"function","name":"stakes","inputs":[{"name":"","type":"address","internalType":"address"}],"outputs":[{"name":"","type":"uint256","internalType":"uint256"}],"stateMutability":"view"},{"type":"function","name":"withdrawStake","inputs":[{"name":"_amount","type":"uint256","internalType":"uint256"}],"outputs":[],"stateMutability":"nonpayable"}],"bytecode":{"object":"0x6080604052348015600f57600080fd5b506040516104a83803806104a8833981016040819052602c916050565b600080546001600160a01b0319166001600160a01b0392909216919091179055607e565b600060208284031215606157600080fd5b81516001600160a01b0381168114607757600080fd5b9392505050565b61041b8061008d6000396000f3fe608060405234801561001057600080fd5b50600436106100625760003560e01c80630700037d1461006757806316934fc41461009a57806325d5971f146100ba578063672ce534146100cf578063a694fc3a146100d7578063f7c618c1146100ea575b600080fd5b610087610075366004610316565b60026020526000908152604090205481565b6040519081526020015b60405180910390f35b6100876100a8366004610316565b60016020526000908152604090205481565b6100cd6100c8366004610346565b610115565b005b6100cd610209565b6100cd6100e5366004610346565b6102b5565b6000546100fd906001600160a01b031681565b6040516001600160a01b039091168152602001610091565b3360009081526001602052604090205481111561016b5760405162461bcd60e51b815260206004820152601060248201526f4e6f7420656e6f756768207374616b6560801b604482015260640160405180910390fd5b336000908152600160205260408120805483929061018a908490610375565b909155505060005460405163a9059cbb60e01b8152336004820152602481018390526001600160a01b039091169063a9059cbb906044015b6020604051808303816000875af11580156101e1573d6000803e3d6000fd5b505050506040513d601f19601f82011682018060405250810190610205919061038e565b5050565b3360009081526001602052604081205461022590600a906103b0565b336000908152600260205260408120805492935083929091906102499084906103d2565b90915550506000546040516340c10f1960e01b8152336004820152602481018390526001600160a01b03909116906340c10f1990604401600060405180830381600087803b15801561029a57600080fd5b505af11580156102ae573d6000803e3d6000fd5b5050505050565b33600090815260016020526040812080548392906102d49084906103d2565b90915550506000546040516323b872dd60e01b8152336004820152306024820152604481018390526001600160a01b03909116906323b872dd906064016101c2565b60006020828403121561032857600080fd5b81356001600160a01b038116811461033f57600080fd5b9392505050565b60006020828403121561035857600080fd5b5035919050565b634e487b7160e01b600052601160045260246000fd5b818103818111156103885761038861035f565b92915050565b6000602082840312156103a057600080fd5b8151801515811461033f57600080fd5b6000826103cd57634e487b7160e01b600052601260045260246000fd5b500490565b808201808211156103885761038861035f56fea264697066735822122083e5c28a310257ea818fc36d0d283cf0ce2443f299efaf94b6546d6335713d0a64736f6c634300081a0033","linkReferences":{}},"methodIdentifiers":{"completeLearningStage()":"672ce534","rewardToken()":"f7c618c1","rewards(address)":"0700037d","stake(uint256)":"a694fc3a","stakes(address)":"16934fc4","withdrawStake(uint256)":"25d5971f"},"id":7}